{
  "_format": "hh-sol-artifact-1",
  "contractName": "CarRegistry",
  "sourceName": "contracts/CarRegistry.sol",
  "abi": [
    {
      "inputs": [
        {
          "internalType": "string",
          "name": "vin",
          "type": "string"
        },
        {
          "internalType": "string",
          "name": "name",
          "type": "string"
        },
        {
          "internalType": "string",
          "name": "brand",
          "type": "string"
        },
        {
          "internalType": "string",
          "name": "motor",
          "type": "string"
        },
        {
          "internalType": "uint256",
          "name": "mileage",
          "type": "uint256"
        },
        {
          "internalType": "string",
          "name": "owner",
          "type": "string"
        },
        {
          "internalType": "uint256",
          "name": "yop",
          "type": "uint256"
        },
        {
          "internalType": "string",
          "name": "reviewedBy",
          "type": "string"
        }
      ],
      "name": "addCar",
      "outputs": [],
      "stateMutability": "nonpayable",
      "type": "function"
    },
    {
      "inputs": [
        {
          "internalType": "uint256",
          "name": "",
          "type": "uint256"
        }
      ],
      "name": "allCars",
      "outputs": [
        {
          "internalType": "string",
          "name": "vin",
          "type": "string"
        },
        {
          "internalType": "string",
          "name": "name",
          "type": "string"
        },
        {
          "internalType": "string",
          "name": "brand",
          "type": "string"
        },
        {
          "internalType": "string",
          "name": "motor",
          "type": "string"
        },
        {
          "internalType": "uint256",
          "name": "mileage",
          "type": "uint256"
        },
        {
          "internalType": "string",
          "name": "owner",
          "type": "string"
        },
        {
          "internalType": "uint256",
          "name": "yop",
          "type": "uint256"
        },
        {
          "internalType": "string",
          "name": "reviewedBy",
          "type": "string"
        },
        {
          "internalType": "uint256",
          "name": "createdAt",
          "type": "uint256"
        }
      ],
      "stateMutability": "view",
      "type": "function"
    },
    {
      "inputs": [],
      "name": "getAllCars",
      "outputs": [
        {
          "components": [
            {
              "internalType": "string",
              "name": "vin",
              "type": "string"
            },
            {
              "internalType": "string",
              "name": "name",
              "type": "string"
            },
            {
              "internalType": "string",
              "name": "brand",
              "type": "string"
            },
            {
              "internalType": "string",
              "name": "motor",
              "type": "string"
            },
            {
              "internalType": "uint256",
              "name": "mileage",
              "type": "uint256"
            },
            {
              "internalType": "string",
              "name": "owner",
              "type": "string"
            },
            {
              "internalType": "uint256",
              "name": "yop",
              "type": "uint256"
            },
            {
              "internalType": "string",
              "name": "reviewedBy",
              "type": "string"
            },
            {
              "internalType": "uint256",
              "name": "createdAt",
              "type": "uint256"
            }
          ],
          "internalType": "struct CarRegistry.Car[]",
          "name": "",
          "type": "tuple[]"
        }
      ],
      "stateMutability": "view",
      "type": "function"
    },
    {
      "inputs": [
        {
          "internalType": "string",
          "name": "reviewedBy",
          "type": "string"
        }
      ],
      "name": "getAllCarsByReviewedBy",
      "outputs": [
        {
          "components": [
            {
              "internalType": "string",
              "name": "vin",
              "type": "string"
            },
            {
              "internalType": "string",
              "name": "name",
              "type": "string"
            },
            {
              "internalType": "string",
              "name": "brand",
              "type": "string"
            },
            {
              "internalType": "string",
              "name": "motor",
              "type": "string"
            },
            {
              "internalType": "uint256",
              "name": "mileage",
              "type": "uint256"
            },
            {
              "internalType": "string",
              "name": "owner",
              "type": "string"
            },
            {
              "internalType": "uint256",
              "name": "yop",
              "type": "uint256"
            },
            {
              "internalType": "string",
              "name": "reviewedBy",
              "type": "string"
            },
            {
              "internalType": "uint256",
              "name": "createdAt",
              "type": "uint256"
            }
          ],
          "internalType": "struct CarRegistry.Car[]",
          "name": "",
          "type": "tuple[]"
        }
      ],
      "stateMutability": "view",
      "type": "function"
    },
    {
      "inputs": [
        {
          "internalType": "string",
          "name": "vin",
          "type": "string"
        }
      ],
      "name": "getAllCarsByVin",
      "outputs": [
        {
          "components": [
            {
              "internalType": "string",
              "name": "vin",
              "type": "string"
            },
            {
              "internalType": "string",
              "name": "name",
              "type": "string"
            },
            {
              "internalType": "string",
              "name": "brand",
              "type": "string"
            },
            {
              "internalType": "string",
              "name": "motor",
              "type": "string"
            },
            {
              "internalType": "uint256",
              "name": "mileage",
              "type": "uint256"
            },
            {
              "internalType": "string",
              "name": "owner",
              "type": "string"
            },
            {
              "internalType": "uint256",
              "name": "yop",
              "type": "uint256"
            },
            {
              "internalType": "string",
              "name": "reviewedBy",
              "type": "string"
            },
            {
              "internalType": "uint256",
              "name": "createdAt",
              "type": "uint256"
            }
          ],
          "internalType": "struct CarRegistry.Car[]",
          "name": "",
          "type": "tuple[]"
        }
      ],
      "stateMutability": "view",
      "type": "function"
    }
  ],
  "bytecode": "0x608060405234801561001057600080fd5b50611f69806100206000396000f3fe608060405234801561001057600080fd5b50600436106100575760003560e01c806316b505c31461005c5780631e3a8d5a1461008c578063abfe5d57146100a8578063b56a399b146100c6578063e385f4fd146100fe575b600080fd5b610076600480360381019061007191906118ae565b61012e565b6040516100839190611b42565b60405180910390f35b6100a660048036038101906100a19190611b90565b610140565b005b6100b061028a565b6040516100bd9190611b42565b60405180910390f35b6100e060048036038101906100db9190611cee565b610674565b6040516100f599989796959493929190611d74565b60405180910390f35b610118600480360381019061011391906118ae565b610a02565b6040516101259190611b42565b60405180910390f35b606061013982610a14565b9050919050565b60006040518061012001604052808a8152602001898152602001888152602001878152602001868152602001858152602001848152602001838152602001428152509050600081908060018154018082558091505060019003906000526020600020906009020160009091909190915060008201518160000190805190602001906101cc929190611665565b5060208201518160010190805190602001906101e9929190611665565b506040820151816002019080519060200190610206929190611665565b506060820151816003019080519060200190610223929190611665565b506080820151816004015560a082015181600501908051906020019061024a929190611665565b5060c0820151816006015560e0820151816007019080519060200190610271929190611665565b5061010082015181600801555050505050505050505050565b60606000805480602002602001604051908101604052809291908181526020016000905b8282101561066b5783829060005260206000209060090201604051806101200160405290816000820180546102e290611e5a565b80601f016020809104026020016040519081016040528092919081815260200182805461030e90611e5a565b801561035b5780601f106103305761010080835404028352916020019161035b565b820191906000526020600020905b81548152906001019060200180831161033e57829003601f168201915b5050505050815260200160018201805461037490611e5a565b80601f01602080910402602001604051908101604052809291908181526020018280546103a090611e5a565b80156103ed5780601f106103c2576101008083540402835291602001916103ed565b820191906000526020600020905b8154815290600101906020018083116103d057829003601f168201915b5050505050815260200160028201805461040690611e5a565b80601f016020809104026020016040519081016040528092919081815260200182805461043290611e5a565b801561047f5780601f106104545761010080835404028352916020019161047f565b820191906000526020600020905b81548152906001019060200180831161046257829003601f168201915b5050505050815260200160038201805461049890611e5a565b80601f01602080910402602001604051908101604052809291908181526020018280546104c490611e5a565b80156105115780601f106104e657610100808354040283529160200191610511565b820191906000526020600020905b8154815290600101906020018083116104f457829003601f168201915b505050505081526020016004820154815260200160058201805461053490611e5a565b80601f016020809104026020016040519081016040528092919081815260200182805461056090611e5a565b80156105ad5780601f10610582576101008083540402835291602001916105ad565b820191906000526020600020905b81548152906001019060200180831161059057829003601f168201915b50505050508152602001600682015481526020016007820180546105d090611e5a565b80601f01602080910402602001604051908101604052809291908181526020018280546105fc90611e5a565b80156106495780601f1061061e57610100808354040283529160200191610649565b820191906000526020600020905b81548152906001019060200180831161062c57829003601f168201915b50505050508152602001600882015481525050815260200190600101906102ae565b50505050905090565b6000818154811061068457600080fd5b90600052602060002090600902016000915090508060000180546106a790611e5a565b80601f01602080910402602001604051908101604052809291908181526020018280546106d390611e5a565b80156107205780601f106106f557610100808354040283529160200191610720565b820191906000526020600020905b81548152906001019060200180831161070357829003601f168201915b50505050509080600101805461073590611e5a565b80601f016020809104026020016040519081016040528092919081815260200182805461076190611e5a565b80156107ae5780601f10610783576101008083540402835291602001916107ae565b820191906000526020600020905b81548152906001019060200180831161079157829003601f168201915b5050505050908060020180546107c390611e5a565b80601f01602080910402602001604051908101604052809291908181526020018280546107ef90611e5a565b801561083c5780601f106108115761010080835404028352916020019161083c565b820191906000526020600020905b81548152906001019060200180831161081f57829003601f168201915b50505050509080600301805461085190611e5a565b80601f016020809104026020016040519081016040528092919081815260200182805461087d90611e5a565b80156108ca5780601f1061089f576101008083540402835291602001916108ca565b820191906000526020600020905b8154815290600101906020018083116108ad57829003601f168201915b5050505050908060040154908060050180546108e590611e5a565b80601f016020809104026020016040519081016040528092919081815260200182805461091190611e5a565b801561095e5780601f106109335761010080835404028352916020019161095e565b820191906000526020600020905b81548152906001019060200180831161094157829003601f168201915b50505050509080600601549080600701805461097990611e5a565b80601f01602080910402602001604051908101604052809291908181526020018280546109a590611e5a565b80156109f25780601f106109c7576101008083540402835291602001916109f2565b820191906000526020600020905b8154815290600101906020018083116109d557829003601f168201915b5050505050908060080154905089565b6060610a0d8261102f565b9050919050565b60606000805b600080549050811015610b0557610ade60008281548110610a3e57610a3d611e8c565b5b90600052602060002090600902016007018054610a5a90611e5a565b80601f0160208091040260200160405190810160405280929190818152602001828054610a8690611e5a565b8015610ad35780601f10610aa857610100808354040283529160200191610ad3565b820191906000526020600020905b815481529060010190602001808311610ab657829003601f168201915b50505050508561164a565b15610af2578180610aee90611eea565b9250505b8080610afd90611eea565b915050610a1a565b5060008167ffffffffffffffff811115610b2257610b21611783565b5b604051908082528060200260200182016040528015610b5b57816020015b610b486116eb565b815260200190600190039081610b405790505b5090506000805b60008054905081101561102357610c2660008281548110610b8657610b85611e8c565b5b90600052602060002090600902016007018054610ba290611e5a565b80601f0160208091040260200160405190810160405280929190818152602001828054610bce90611e5a565b8015610c1b5780601f10610bf057610100808354040283529160200191610c1b565b820191906000526020600020905b815481529060010190602001808311610bfe57829003601f168201915b50505050508761164a565b156110105760008181548110610c3f57610c3e611e8c565b5b906000526020600020906009020160405180610120016040529081600082018054610c6990611e5a565b80601f0160208091040260200160405190810160405280929190818152602001828054610c9590611e5a565b8015610ce25780601f10610cb757610100808354040283529160200191610ce2565b820191906000526020600020905b815481529060010190602001808311610cc557829003601f168201915b50505050508152602001600182018054610cfb90611e5a565b80601f0160208091040260200160405190810160405280929190818152602001828054610d2790611e5a565b8015610d745780601f10610d4957610100808354040283529160200191610d74565b820191906000526020600020905b815481529060010190602001808311610d5757829003601f168201915b50505050508152602001600282018054610d8d90611e5a565b80601f0160208091040260200160405190810160405280929190818152602001828054610db990611e5a565b8015610e065780601f10610ddb57610100808354040283529160200191610e06565b820191906000526020600020905b815481529060010190602001808311610de957829003601f168201915b50505050508152602001600382018054610e1f90611e5a565b80601f0160208091040260200160405190810160405280929190818152602001828054610e4b90611e5a565b8015610e985780601f10610e6d57610100808354040283529160200191610e98565b820191906000526020600020905b815481529060010190602001808311610e7b57829003601f168201915b5050505050815260200160048201548152602001600582018054610ebb90611e5a565b80601f0160208091040260200160405190810160405280929190818152602001828054610ee790611e5a565b8015610f345780601f10610f0957610100808354040283529160200191610f34565b820191906000526020600020905b815481529060010190602001808311610f1757829003601f168201915b5050505050815260200160068201548152602001600782018054610f5790611e5a565b80601f0160208091040260200160405190810160405280929190818152602001828054610f8390611e5a565b8015610fd05780601f10610fa557610100808354040283529160200191610fd0565b820191906000526020600020905b815481529060010190602001808311610fb357829003601f168201915b50505050508152602001600882015481525050838381518110610ff657610ff5611e8c565b5b6020026020010181905250818061100c90611eea565b9250505b808061101b90611eea565b915050610b62565b50819350505050919050565b60606000805b600080549050811015611120576110f96000828154811061105957611058611e8c565b5b9060005260206000209060090201600001805461107590611e5a565b80601f01602080910402602001604051908101604052809291908181526020018280546110a190611e5a565b80156110ee5780601f106110c3576101008083540402835291602001916110ee565b820191906000526020600020905b8154815290600101906020018083116110d157829003601f168201915b50505050508561164a565b1561110d57818061110990611eea565b9250505b808061111890611eea565b915050611035565b5060008167ffffffffffffffff81111561113d5761113c611783565b5b60405190808252806020026020018201604052801561117657816020015b6111636116eb565b81526020019060019003908161115b5790505b5090506000805b60008054905081101561163e57611241600082815481106111a1576111a0611e8c565b5b906000526020600020906009020160000180546111bd90611e5a565b80601f01602080910402602001604051908101604052809291908181526020018280546111e990611e5a565b80156112365780601f1061120b57610100808354040283529160200191611236565b820191906000526020600020905b81548152906001019060200180831161121957829003601f168201915b50505050508761164a565b1561162b576000818154811061125a57611259611e8c565b5b90600052602060002090600902016040518061012001604052908160008201805461128490611e5a565b80601f01602080910402602001604051908101604052809291908181526020018280546112b090611e5a565b80156112fd5780601f106112d2576101008083540402835291602001916112fd565b820191906000526020600020905b8154815290600101906020018083116112e057829003601f168201915b5050505050815260200160018201805461131690611e5a565b80601f016020809104026020016040519081016040528092919081815260200182805461134290611e5a565b801561138f5780601f106113645761010080835404028352916020019161138f565b820191906000526020600020905b81548152906001019060200180831161137257829003601f168201915b505050505081526020016002820180546113a890611e5a565b80601f01602080910402602001604051908101604052809291908181526020018280546113d490611e5a565b80156114215780601f106113f657610100808354040283529160200191611421565b820191906000526020600020905b81548152906001019060200180831161140457829003601f168201915b5050505050815260200160038201805461143a90611e5a565b80601f016020809104026020016040519081016040528092919081815260200182805461146690611e5a565b80156114b35780601f10611488576101008083540402835291602001916114b3565b820191906000526020600020905b81548152906001019060200180831161149657829003601f168201915b50505050508152602001600482015481526020016005820180546114d690611e5a565b80601f016020809104026020016040519081016040528092919081815260200182805461150290611e5a565b801561154f5780601f106115245761010080835404028352916020019161154f565b820191906000526020600020905b81548152906001019060200180831161153257829003601f168201915b505050505081526020016006820154815260200160078201805461157290611e5a565b80601f016020809104026020016040519081016040528092919081815260200182805461159e90611e5a565b80156115eb5780601f106115c0576101008083540402835291602001916115eb565b820191906000526020600020905b8154815290600101906020018083116115ce57829003601f168201915b5050505050815260200160088201548152505083838151811061161157611610611e8c565b5b6020026020010181905250818061162790611eea565b9250505b808061163690611eea565b91505061117d565b50819350505050919050565b60008180519060200120838051906020012014905092915050565b82805461167190611e5a565b90600052602060002090601f01602090048101928261169357600085556116da565b82601f106116ac57805160ff19168380011785556116da565b828001600101855582156116da579182015b828111156116d95782518255916020019190600101906116be565b5b5090506116e79190611737565b5090565b6040518061012001604052806060815260200160608152602001606081526020016060815260200160008152602001606081526020016000815260200160608152602001600081525090565b5b80821115611750576000816000905550600101611738565b5090565b6000604051905090565b600080fd5b600080fd5b600080fd5b600080fd5b6000601f19601f8301169050919050565b7f4e487b7100000000000000000000000000000000000000000000000000000000600052604160045260246000fd5b6117bb82611772565b810181811067ffffffffffffffff821117156117da576117d9611783565b5b80604052505050565b60006117ed611754565b90506117f982826117b2565b919050565b600067ffffffffffffffff82111561181957611818611783565b5b61182282611772565b9050602081019050919050565b82818337600083830152505050565b600061185161184c846117fe565b6117e3565b90508281526020810184848401111561186d5761186c61176d565b5b61187884828561182f565b509392505050565b600082601f83011261189557611894611768565b5b81356118a584826020860161183e565b91505092915050565b6000602082840312156118c4576118c361175e565b5b600082013567ffffffffffffffff8111156118e2576118e1611763565b5b6118ee84828501611880565b91505092915050565b600081519050919050565b600082825260208201905092915050565b6000819050602082019050919050565b600081519050919050565b600082825260208201905092915050565b60005b8381101561195d578082015181840152602081019050611942565b8381111561196c576000848401525b50505050565b600061197d82611923565b611987818561192e565b935061199781856020860161193f565b6119a081611772565b840191505092915050565b6000819050919050565b6119be816119ab565b82525050565b60006101208301600083015184820360008601526119e28282611972565b915050602083015184820360208601526119fc8282611972565b91505060408301518482036040860152611a168282611972565b91505060608301518482036060860152611a308282611972565b9150506080830151611a4560808601826119b5565b5060a083015184820360a0860152611a5d8282611972565b91505060c0830151611a7260c08601826119b5565b5060e083015184820360e0860152611a8a8282611972565b915050610100830151611aa16101008601826119b5565b508091505092915050565b6000611ab883836119c4565b905092915050565b6000602082019050919050565b6000611ad8826118f7565b611ae28185611902565b935083602082028501611af485611913565b8060005b85811015611b305784840389528151611b118582611aac565b9450611b1c83611ac0565b925060208a01995050600181019050611af8565b50829750879550505050505092915050565b60006020820190508181036000830152611b5c8184611acd565b905092915050565b611b6d816119ab565b8114611b7857600080fd5b50565b600081359050611b8a81611b64565b92915050565b600080600080600080600080610100898b031215611bb157611bb061175e565b5b600089013567ffffffffffffffff811115611bcf57611bce611763565b5b611bdb8b828c01611880565b985050602089013567ffffffffffffffff811115611bfc57611bfb611763565b5b611c088b828c01611880565b975050604089013567ffffffffffffffff811115611c2957611c28611763565b5b611c358b828c01611880565b965050606089013567ffffffffffffffff811115611c5657611c55611763565b5b611c628b828c01611880565b9550506080611c738b828c01611b7b565b94505060a089013567ffffffffffffffff811115611c9457611c93611763565b5b611ca08b828c01611880565b93505060c0611cb18b828c01611b7b565b92505060e089013567ffffffffffffffff811115611cd257611cd1611763565b5b611cde8b828c01611880565b9150509295985092959890939650565b600060208284031215611d0457611d0361175e565b5b6000611d1284828501611b7b565b91505092915050565b600082825260208201905092915050565b6000611d3782611923565b611d418185611d1b565b9350611d5181856020860161193f565b611d5a81611772565b840191505092915050565b611d6e816119ab565b82525050565b6000610120820190508181036000830152611d8f818c611d2c565b90508181036020830152611da3818b611d2c565b90508181036040830152611db7818a611d2c565b90508181036060830152611dcb8189611d2c565b9050611dda6080830188611d65565b81810360a0830152611dec8187611d2c565b9050611dfb60c0830186611d65565b81810360e0830152611e0d8185611d2c565b9050611e1d610100830184611d65565b9a9950505050505050505050565b7f4e487b7100000000000000000000000000000000000000000000000000000000600052602260045260246000fd5b60006002820490506001821680611e7257607f821691505b60208210811415611e8657611e85611e2b565b5b50919050565b7f4e487b7100000000000000000000000000000000000000000000000000000000600052603260045260246000fd5b7f4e487b7100000000000000000000000000000000000000000000000000000000600052601160045260246000fd5b6000611ef5826119ab565b91507fffffffffffffffffffffffffffffffffffffffffffffffffffffffffffffffff821415611f2857611f27611ebb565b5b60018201905091905056fea26469706673582212201516a803e1bca9f017970eff3324a6ca86a26e8700e2a7d92e0c91cf002d031064736f6c634300080b0033",
  "linkReferences": {},
  "deployedLinkReferences": {}
}